:020000040800F2
:100000008808002095030008A15400089D520008AC
:100010009D5400088B050008B9620008000000002C
:100020000000000000000000000000007157000800
:100030001D0B000800000000A554000873570008BD
:10004000AF030008AF030008AF030008AF030008C8
:10005000AF030008AF030008AF030008AF030008B8
:10006000AF030008AF030008AF03000891050008C4
:10007000A1050008AF030008AF030008AF030008A4
:10008000AF030008AF030008AF030008AF03000888
:10009000AF030008AF030008AF030008AF03000878
:1000A000AF030008AF030008AF030008AF03000868
:1000B000AF030008AF030008AF030008AF03000858
:1000C000AF030008AF030008AF030008AF03000848
:1000D000AF030008AF030008AF030008AF03000838
:1000E000AF030008AF03000800000000AF030008E2
:1000F000AF030008AF030008AF030008AF03000818
:10010000AF030008AF030008AF030008AF03000807
:10011000AF0300084D590008AF030008AF03000803
:10012000AF030008AF030008AF030008AF030008E7
:10013000AF030008AF030008AF030008AF030008D7
:1001400000000000000000000000000000000000AF
:10015000AF030008AF030008AF030008A96200085E
:10016000AF030008AF030008AF030008AF030008A7
:10017000AF030008AF030008AF030008AF03000897
:10018000AF030008AF030008AF030008AF03000887
:10019000AF030008AF030008AF030008AF03000877
:1001A000AF030008AF030008AF030008AF03000867
:1001B000AF030008AF030008AF030008AF03000857
:1001C000AF030008AF030008AF030008AF03000847
:1001D000AF030008AF030008AF030008AF03000837
:1001E000AF030008AF030008AF030008AF03000827
:1001F000AF030008AF030008AF030008AF03000817
:10020000AF030008AF030008AF030008AF03000806
:10021000AF030008AF030008AF030008AF030008F6
:10022000AF030008AF030008AF03000800000000A0
:10023000AF030008AF03000800000000AF03000890
:10024000AF030008AF030008AF030008AF030008C6
:10025000AF030008AF030008AF030008AF030008B6
:10026000AF030008AF030008AF030008AF030008A6
:10027000AF030008AF030008AF0300080000000050
:10028000AF030008AF030008AF0300080000000040
:1002900000000000AF03000800F002F800F06AF868
:1002A0000AA090E8000C82448344AAF10107DA45D1
:1002B00001D100F05FF8AFF2090EBAE80F0013F0B9
:1002C000010F18BFFB1A43F00103184768630000D1
:1002D000986300000A444FF0000C10F8013B13F043
:1002E000070408BF10F8014B1D1108BF10F8015B8F
:1002F000641E05D010F8016B641E01F8016BF9D182
:1003000013F0080F1EBF10F8014BAD1C0C1B09D1D8
:100310006D1E58BF01F801CBFAD505E014F8016B4A
:1003200001F8016B6D1EF9D59142D6D370470000DC
:10033000103A24BF78C878C1FAD8520724BF30C811
:1003400030C144BF04680C607047000000230024E3
:1003500000250026103A28BF78C1FBD8520728BFD5
:1003600030C148BF0B6070471FB506F03DF91FBD97
:1003700010B510BD00F0CFF81146FFF7F5FF05F0FE
:10038000B9FF00F0EDF803B4FFF7F2FF03BC00F093
:10039000F5F800000948804709480047FEE7FEE7F6
:1003A000FEE7FEE7FEE7FEE7FEE7FEE7FEE7FEE725
:1003B00004480549054A064B7047000049580008A3
:1003C0009902000888020020880800208804002084
:1003D0008804002053EA020C00F069802DE9F04BFC
:1003E0004FF00006002B1FBFB3FA83F503FA05F4A4
:1003F00024FA05F65E4012BF1643B2FA82F502FAFD
:1004000005F4C5F120051EBF22FA05FC44EA0C04E0
:10041000203556EA044C4FEA144418BF641C4FF0D0
:1004200000084FF00009904271EB030C39D300290A
:1004300019BFB1FA81F701FA07F6B0FA80F700FAAE
:1004400007F6C7F120071EBF20FA07FC46EA0C0694
:100450002037B6FBF4FCA7EB0507103F07F01F0B96
:10046000CBF120060CFA0BFB2CFA06F644BFB34680
:100470000026202FA4BF5E464FF0000B5BEA060C5F
:1004800008BF4FF0010B19EB0B09ABFB027C48EBEB
:100490000608C01B06FB02CC0BFB03CC71EB0C0166
:1004A000C1E70B46024641464846BDE8F08B13B50E
:1004B0004FF000004FF00001AFF30080BDE81C409A
:1004C00070474FF0000200B5134694469646203917
:1004D00022BFA0E80C50A0E80C50B1F12001BFF4FD
:1004E000F7AF090728BFA0E80C5048BF0CC05DF863
:1004F00004EB890028BF40F8042B08BF704748BFB1
:1005000020F8022B11F0804F18BF00F8012B704724
:10051000704770477047754600F02CF8AE460500EE
:100520006946534620F00700854618B020B5FFF70E
:100530003FFFBDE820404FF000064FF000074FF0AE
:1005400000084FF0000B21F00701AC46ACE8C009F1
:10055000ACE8C009ACE8C009ACE8C0098D467047FA
:1005600010B50446AFF300802046BDE81040FFF709
:100570000ABF0000004870472402002001491820EB
:10058000ABBEFEE726000200704700BFFEE700009A
:1005900010B5024800F000FF10BD0000AC010020C3
:1005A00010B5024800F0F8FE10BD00003401002034
:1005B0000146374A0868904249D0354A18320868DF
:1005C000904244D0324A3032086890423FD0304A9C
:1005D0004832086890423AD02D4A6032086890420A
:1005E00035D02B4A78320868904230D0284A903271
:1005F000086890422BD0264AA8320868904226D03C
:10060000244A0868904222D0224A18320868904250
:100610001DD0204A30320868904218D01D4A483216
:100620000868904213D01B4A6032086890420ED08E
:10063000184A78320868904209D0164A9032086801
:10064000904204D0134AA8320868904201D1012098
:1006500000E00020B0B10A78103A1823B2FBF3F0A2
:1006600000F007020C4B9A5CCA65032805D90A689A
:100670006FF30902121D8A6503E00A686FF309022D
:100680008A6503E0086820F0FF008865886D704780
:100690001000024010040240F265000810B5026824
:1006A0002B4C0368A34222D0294C14340368A34284
:1006B0001DD0274C28340368A34218D0244C3C3466
:1006C0000368A34213D0224C50340368A3420ED0D7
:1006D0001F4C64340368A34209D01D4C783403686E
:1006E000A34204D01A4C8C340368A34201D10123E5
:1006F00000E000238BB10378083B1424B3FBF4F132
:10070000144B03EB81030366124B8033436601F005
:100710001F040123A340836618E00378103B1824CC
:10072000B3FBF4F10C4B9A4204D80B4BA83B9A4212
:1007300000D30831094B03EB81030366074B803379
:10074000436601F01F040123A340836610BD00002F
:100750000854025800580258B804024000080240E9
:100760000179A9B3082940D8204B02689A4222D0C7
:100770001E4B143302689A421DD01C4B283302686A
:100780009A4218D0194B3C3302689A4213D0174B47
:10079000503302689A420ED0144B643302689A4276
:1007A00009D0124B783302689A4204D00F4B8C3335
:1007B00002689A4201D1012200E000224AB14A1E99
:1007C0000B4B03EB8202C266094A4032026708E023
:1007D0000BE04A1E074B03EB8202C266054A403219
:1007E00002674A1E0123934043677047085402582A
:1007F0000059025800090240014600208A69D2B916
:100800008A6A32B1012A0DD0022A03D0032A10D1FC
:100810000EE000BFCA6A02F08072B2F1807F00D1A0
:10082000012007E0CA6AB2F1C07F00D1012001E0D7
:1008300000E000BF36E08A69B2F5005F1BD18A6A2A
:1008400032B1012A07D0022A03D0032A11D10AE0CB
:1008500000BF01200EE0CA6A02F08072B2F1807F10
:1008600000D1012006E0CA6AB2F1C07F00D10120A8
:1008700000E000BF16E08A6A32B1012A05D0022AE0
:1008800004D0032A0CD103E000BF00BF012008E020
:10089000CA6A02F08072B2F1807F00D1012000E0CC
:1008A00000BF00BF70470000F0B5856D846D984FA4
:1008B0000668BE4270D0964F18370668BE426BD0AD
:1008C000934F30370668BE4266D0914F483706686E
:1008D000BE4261D08E4F60370668BE425CD08C4FFE
:1008E00078370668BE4257D0894F90370668BE42B7
:1008F00052D0874FA8370668BE424DD0854F066854
:10090000BE4249D0834F18370668BE4244D0814F5B
:1009100030370668BE423FD07E4F48370668BE4239
:100920003AD07C4F60370668BE4235D0794F783771
:100930000668BE4230D0774F90370668BE422BD053
:10094000744FA8370668BE4226D0734F0668BE4271
:1009500022D0714F14370668BE421DD06E4F283723
:100960000668BE4218D06C4F3C370668BE4213D0B2
:10097000694F50370668BE420ED0674F643706682D
:10098000BE4209D0644F78370668BE4204D0624F39
:100990008C370668BE4201D1012600E000263EB138
:1009A000D0E919767E60C66E16B1D0E91C767E60FD
:1009B000574F0668BE4249D0554F18370668BE42A9
:1009C00044D0534F30370668BE423FD0504F48376F
:1009D0000668BE423AD04E4F60370668BE4235D0F8
:1009E0004B4F78370668BE4230D0494F9037066883
:1009F000BE422BD0464FA8370668BE4226D0454F90
:100A00000668BE4222D0434F18370668BE421DD04A
:100A1000404F30370668BE4218D03E4F4837066810
:100A2000BE4213D03B4F60370668BE420ED0394FEE
:100A300078370668BE4209D0364F90370668BE4206
:100A400004D0344FA8370668BE4201D1012600E029
:100A50000026DEB190F85C6006F01F073F26BE401E
:100A6000AE600668366826F4802607683E60066831
:100A700073608668402E04D10668B2600668F16033
:100A800044E00668B1600668F2603FE0224F066805
:100A9000BE4222D0204F14370668BE421DD01E4FE2
:100AA00028370668BE4218D01B4F3C370668BE4246
:100AB00013D0194F50370668BE420ED0164F643718
:100AC0000668BE4209D0144F78370668BE4204D08B
:100AD000114F8C370668BE4201D1012600E0002686
:100AE000A6B190F85C6006F01F070126BE40666064
:100AF000066873608668402E04D10668B260066896
:100B0000F16003E00668B1600668F260F0BD0000C5
:100B1000100002401004024008540258704772B698
:100B200000BFFEE72DE9F041044601F03BFF80469F
:100B300014B90120BDE8F08194F83500022808D0EE
:100B40008020606500BF002084F8340000BF0120D1
:100B5000F0E7FE492068884249D0FC4918312068F6
:100B6000884244D0F9493031206888423FD0F74963
:100B70004831206888423AD0F44960312068884280
:100B800035D0F24978312068884230D0EF49903131
:100B9000206888422BD0ED49A8312068884226D0B1
:100BA000EB492068884222D0E94918312068884200
:100BB0001DD0E74930312068884218D0E4494831D7
:100BC0002068884213D0E2496031206888420ED004
:100BD000DF4978312068884209D0DD4990312068AA
:100BE000884204D0DA49A8312068884201D1012026
:100BF00000E0002068B12068006820F01E00216835
:100C000008602068406920F08000216848612568FC
:100C100006E02068006820F00E0021680860256862
:100C2000CA492068884270D0C84918312068884273
:100C30006BD0C64930312068884266D0C3494831FC
:100C40002068884261D0C1496031206888425CD008
:100C5000BE4978312068884257D0BC49903120681D
:100C6000884252D0B949A831206888424DD0B8494D
:100C70002068884249D0B64918312068884244D05B
:100C8000B3493031206888423FD0B14948312068AB
:100C900088423AD0AE4960312068884235D0AC49AC
:100CA00078312068884230D0A94990312068884244
:100CB0002BD0A749A8312068884226D0A5492068B2
:100CC000884222D0A3491431206888421DD0A1490E
:100CD00028312068884218D09E493C3120688842DB
:100CE00013D09C495031206888420ED09949643114
:100CF0002068884209D0974978312068884204D01A
:100D000094498C312068884201D1012000E0002004
:100D100028B1206E006820F48070216E08608B4935
:100D20002068884249D0894918312068884244D0D7
:100D300086493031206888423FD084494831206854
:100D400088423AD0814960312068884235D07F4955
:100D500078312068884230D07C49903120688842C0
:100D60002BD07A49A8312068884226D0784920685B
:100D7000884222D076491831206888421DD07449B3
:100D800030312068884218D0714948312068884243
:100D900013D06F496031206888420ED06C49783199
:100DA0002068884209D06A4990312068884204D07E
:100DB0006749A8312068884206D12068006820F081
:100DC00001002168086005E02068006820F001004B
:100DD0002168086011E001F0E5FDA0EB080005289E
:100DE0000BD92020606500BF002084F8340000BFCC
:100DF000032084F8350001209CE6286800F00100FB
:100E00000028E8D151492068884249D04F4918311B
:100E10002068884244D04D493031206888423FD014
:100E20004A494831206888423AD0484960312068B0
:100E3000884235D0454978312068884230D04349CE
:100E40009031206888422BD04049A83120688842E0
:100E500026D03F492068884222D03D491831206879
:100E600088421DD03A4930312068884218D038492C
:100E700048312068884213D0354960312068884263
:100E80000ED0334978312068884209D030499031FA
:100E90002068884204D02E49A8312068884201D1B8
:100EA000012000E0002040B1A66D94F85C0000F045
:100EB0001F013F208840B06007E0A76D94F85C00F8
:100EC00000F01F0101208840786020492068884296
:100ED00076D01E4918312068884271D01B493031C4
:100EE000206888426CD0194948312068884267D010
:100EF000164960312068884262D0144978312068F0
:100F000088425DD0114990312068884258D00F49FD
:100F1000A8312068884253D00D49206888424FD0BC
:100F20000B491831206888424AD00949303120687D
:100F3000884245D0064948312068884240D004495B
:100F40006031206888423BD0014905E01000024032
:100F500010040240085402587831206888422FD08B
:100F60002549206888422BD02349183120688842BF
:100F700026D022492068884222D020491431206896
:100F800088421DD01D4928312068884218D01B494D
:100F90003C312068884213D018495031206888427B
:100FA0000ED0164964312068884209D0134978313F
:100FB0002068884204D011498C312068884201D1D0
:100FC000012000E0002068B1D4E919104860E06E0B
:100FD00040B1E06E006820F48070E16E0860D4E9F2
:100FE0001C10486000BF002084F8340000BF0120BE
:100FF00084F8350000209DE5A00402400854025802
:1010000070B504460CB9012070BD94F83500022873
:1010100003D0802060650120F6E7DC492068884223
:1010200049D0DA4918312068884244D0D749303154
:10103000206888423FD0D5494831206888423AD05C
:10104000D24960312068884235D0D0497831206853
:10105000884230D0CD499031206888422BD0CB498E
:10106000A8312068884226D0C9492068884222D009
:10107000C7491831206888421DD0C54930312068E1
:10108000884218D0C24948312068884213D0C049EC
:101090006031206888420ED0BD497831206888428E
:1010A00009D0BB4990312068884204D0B849A831A2
:1010B0002068884201D1012000E00020F0B3042024
:1010C00084F83500B149206888424BD0AF491831C7
:1010D0002068884246D0AD4930312068884241D0EE
:1010E000AA494831206888423CD0A849603120682C
:1010F000884237D0A54978312068884232D0A34948
:101100009031206888422DD0A049A83120688842BB
:1011100028D09F492068884224D09D4918312068F2
:1011200088421FD09A493031206888421AD09849A5
:1011300048312068884215D0954900E020E06031B0
:10114000206888420ED0924978312068884209D0C0
:101150008F4990312068884204D08D49A831206899
:10116000884206D12068006820F0010021680860EC
:1011700009E12068006820F001002168086002E1B0
:101180002068006820F00E00216808607F49206810
:10119000884249D07D4918312068884244D07B4933
:1011A0003031206888423FD07849483120688842F1
:1011B0003AD0764960312068884235D07349783119
:1011C0002068884230D071499031206888422BD005
:1011D0006E49A8312068884226D06D49206888422F
:1011E00022D06B491831206888421DD068493031BF
:1011F0002068884218D0664948312068884213D058
:1012000063496031206888420ED061497831206896
:10121000884209D05E4990312068884204D05C49F8
:10122000A8312068884206D12068006820F00100BB
:101230002168086005E02068006820F0010021684E
:10124000086052492068884270D05049183120689F
:1012500088426BD04D4930312068884266D04B4976
:1012600048312068884261D048496031206888420E
:101270005CD0464978312068884257D04349903144
:101280002068884252D04149A831206888424DD018
:101290003F492068884249D03D491831206888423A
:1012A00044D03B493031206888423FD038494831EA
:1012B000206888423AD0364960312068884235D06B
:1012C000334978312068884230D0314990312068E4
:1012D00088422BD02E49A8312068884226D02D493B
:1012E0002068884222D02B491431206888421DD0C2
:1012F000284928312068884218D026493C31206886
:10130000884213D023495031206888420ED02149A9
:1013100064312068884209D01E49783120688842AB
:1013200004D01C498C312068884201D1012000E0A2
:101330000020D8B1206E006820F48070216E086013
:10134000A56D94F85C0000F01F01012088406860E2
:10135000D4E919104860E06E40B1E06E006820F4F6
:101360008070E16E0860D4E91C10486000BF002066
:1013700084F8340000BF012084F83500206D10B1DE
:101380002046216D884700203EE600001000024004
:1013900010040240085402582DE9F84F044600207A
:1013A0000090FE4800684FF41651B0FBF1FAA66DAC
:1013B000D4F858803768D8F80090F94920688842F6
:1013C00049D0F74918312068884244D0F449303177
:1013D000206888423FD0F2494831206888423AD09C
:1013E000EF4960312068884235D0ED497831206876
:1013F000884230D0EA499031206888422BD0E849B1
:10140000A8312068884226D0E6492068884222D048
:10141000E4491831206888421DD0E2493031206803
:10142000884218D0DF4948312068884213D0DD490E
:101430006031206888420ED0DA49783120688842CD
:1014400009D0D84990312068884204D0D549A831C4
:101450002068884201D1012000E0002000287DD0D2
:1014600094F85C0000F01F010820884038400028F4
:1014700068D0CB492068884249D0C94918312068D2
:10148000884244D0C6493031206888423FD0C449A0
:101490004831206888423AD0C1496031206888428A
:1014A00035D0BF4978312068884230D0BC4990316E
:1014B000206888422BD0BA49A8312068884226D0BB
:1014C000B8492068884222D0B6491831206888423D
:1014D0001DD0B44930312068884218D0B149483114
:1014E0002068884213D0AF496031206888420ED00E
:1014F000AC4978312068884209D0AA4990312068E7
:10150000884204D0A749A8312068884204D12068C5
:10151000006800F0040003E02068006800F00800A4
:1015200080B12068006820F004002168086094F809
:101530005C0000F01F0108208840B060606D40F042
:101540000100606594F85C0000F01F0101208840F4
:101550003840E8B392492068884200E0B8E24BD0B6
:101560008F4918312068884246D08D493031206833
:10157000884241D08A494831206888423CD0884915
:1015800060312068884237D08549783120688842A8
:1015900032D083499031206888422DD08049A831CB
:1015A0002068884228D07F492068884224D07D491D
:1015B0001831206888421FD07A493031206888422B
:1015C0001AD0784948312068884215D0754900E022
:1015D00026E06031206888420ED072497831206858
:1015E000884209D06F4990312068884204D06D4903
:1015F000A8312068884204D12068406900F080004A
:1016000002E020680068002050B194F85C0000F00F
:101610001F0101208840B060606D40F002006065ED
:1016200094F85C0000F01F01042088403840E8B3C3
:101630005B49206888424BD059491831206888425C
:1016400046D0574930312068884241D0544948310A
:10165000206888423CD0524960312068884237D0A7
:101660004F4978312068884232D04D499031206806
:1016700088422DD04A49A8312068884228D049495B
:101680002068884224D047491831206888421FD0FA
:1016900044493031206888421AD042494831206894
:1016A000884215D03F496031206800E024E088423C
:1016B0000ED03C4978312068884209D039499031B0
:1016C0002068884204D03749A8312068884204D174
:1016D0002068006800F0020002E020680068002036
:1016E00050B194F85C0000F01F0104208840B06005
:1016F000606D40F00400606594F85C0000F01F012C
:10170000102088403840E8B325492068884251D0ED
:1017100023491831206888424CD021493031206853
:10172000884247D01E4948312068884242D01C492F
:101730006031206888423DD019497831206888425C
:1017400038D0174990312068884233D01449A831E5
:10175000206888422ED01349206888422AD0114937
:1017600018312068884225D00E49303120688842DF
:1017700020D00C494831206888421BD0094960318B
:10178000206800E04DE0884214D006497831206896
:1017900088420FD003499031206805E00C000020FA
:1017A0001000024010040240884203D0FE49206825
:1017B000884204D12068006800F0080003E0206837
:1017C000006800F0040060B394F85C0000F01F01B2
:1017D00010208840B0602068006800F4802080B14C
:1017E0002068006800F4002028B9206CC8B12046A9
:1017F000216C884715E0A06C98B12046A16C884701
:101800000FE02068006800F4807028B92068006844
:1018100020F0080021680860206C10B12046216C7F
:10182000884794F85C0000F01F0120208840384071
:1018300000287DD0DD492068884249D0DB49183135
:101840002068884244D0D9493031206888423FD04E
:10185000D6494831206888423AD0D449603120685E
:10186000884235D0D14978312068884230D0CF497C
:101870009031206888422BD0CC49A831206888421A
:1018800026D0C949A8392068884221D0C649903954
:10189000206888421CD0C44978392068884217D013
:1018A000C14960392068884212D0BF494839206850
:1018B00088420DD0BC4930392068884208D0BA49E6
:1018C00018392068884203D0B7492068884204D17B
:1018D0002068006800F0100003E02068006800F055
:1018E000020028B394F85C0000F01F01202088401B
:1018F000B06094F8350004282DD12068006820F0ED
:101900001600216808602068406920F08000216886
:101910004861206C08B9A06C28B12068006820F0EC
:1019200008002168086094F85C0000F01F0100E0E6
:101930003FE03F208840B06000BF002084F83400C2
:1019400000BF012084F83500206D10B12046216DC4
:101950008847BDE8F88F2068006800F4802080B1D7
:101960002068006800F4002028B9606C08B32046A5
:10197000616C88471DE0E06BD8B12046E16B884779
:1019800017E02068006800F4807068B9206800687B
:1019900020F010002168086000BF002084F83400A7
:1019A00000BF012084F83500E06B10B12046E16BE8
:1019B0008847606D00287DD0606D00F00100E8B3BD
:1019C000042084F835007949206888424BD0774953
:1019D00018312068884246D07449303120688842E6
:1019E00041D072494831206888423CD06F4960310B
:1019F0002068884237D06D4978312068884232D0DB
:101A00006A499031206888422DD06849A831206801
:101A1000884228D06449A8392068884223D0624986
:101A20009039206888421ED05F4978392068884202
:101A300019D05D4960392068884200E041E012D049
:101A400059494839206888420DD0574930392068B3
:101A5000884208D0544918392068884203D0524936
:101A60002068884206D12068006820F001002168C3
:101A7000086005E02068006820F001002168086027
:101A800000BF0098401C0090504500D905E0206838
:101A9000006800F001000028F3D100BF00BF002063
:101AA00084F8340000BF2068006800F0010028B10D
:101AB000032000E00BE084F8350002E0012084F808
:101AC0003500E06C002802D02046E16C8847D9E15F
:101AD00037492068884222D035491431206888422D
:101AE0001DD0334928312068884218D030493C3114
:101AF0002068884213D02E495031206888420ED089
:101B00002B4964312068884209D0294978312068FE
:101B1000884204D026498C312068884201D10120B6
:101B200000E000200028D2D02068056894F85C000E
:101B300000F01F010420884000EA0900D0B305F03E
:101B40000400B8B394F85C0000F01F010420884042
:101B5000C8F8040005F4004080B105F4803030B9C5
:101B6000A06C0028B3D02046A16C88478AE1206C85
:101B70000028ACD02046216C884783E105F0200086
:101B8000F0BB0A492068884252D0084918312068C1
:101B900088424DD0054930312068884248D00349F9
:101BA00048312068884206E0B80402401000024034
:101BB000085402584FE03BD0B3492068884237D0E0
:101BC000B14918312068884232D0AF49303120689D
:101BD00088422DD0AC4948312068884228D0AB4992
:101BE0002068884224D0A9491831206888421FD033
:101BF000A6493031206888421AD0A449483100E013
:101C000023E02068884213D0A049603120688842D0
:101C10000ED09E4978312068884209D09B49903186
:101C20002068884204D09949A8312068884206D1AA
:101C30002068006820F008002168086005E020683E
:101C4000006820F0040021680860206C10B3204672
:101C5000216C884716E194F85C0000F01F01022017
:101C6000884000EA0900E8B305F00200D0B394F818
:101C70005C0000F01F0102208840C8F8040005F451
:101C8000004070B105F4803028B9606C10B1204676
:101C9000616C8847F6E0E06BF0B32046E16B884763
:101CA000F0E005F02000C0BB774960392068884229
:101CB0004DD0754948392068884248D0724930393A
:101CC0002068884243D070491839206888423ED045
:101CD0006D49206888423AD06B49183120688842A3
:101CE00035D000E04EE068493031206888422ED07F
:101CF000654948312068884229D064492068884273
:101D000025D0624918312068884220D05F4930319F
:101D1000206888421BD001E06EE02DE05B4948312D
:101D20002068884213D059496031206888420ED01B
:101D3000564978312068884209D05449903120684A
:101D4000884204D05149A8312068884206D12068D1
:101D5000006820F014002168086005E02068006831
:101D600020F00A002168086000BF002084F83400D9
:101D700000BF012084F83500E06BE8B32046E16B3A
:101D800088477FE094F85C0000F01F01082088403D
:101D900000EA090080B305F0080068B33A496039E9
:101DA000206888424AD0384948392068884245D05E
:101DB000354930392068884240D033491839206885
:101DC00088423BD030492068884237D02E491831AC
:101DD0002068884232D02C493031206888422DD08A
:101DE000294948312068884228D0284920688842FB
:101DF00024D02649183100E044E0206888421DD0F4
:101E0000224930312068884218D020494831206862
:101E1000884213D01D496031206888420ED01B498A
:101E200078312068884209D018499031206888426A
:101E300004D01649A8312068884206D1206800687D
:101E400020F01C002168086005E02068006820F090
:101E50000E002168086094F85C0000F01F0101206A
:101E60008840C8F804000120606500BF002084F8A5
:101E7000340000BF012084F83500E06C10B120462A
:101E8000E16C884700BF64E5700002401004024026
:101E90002DE9F041044600F085FD804614B901208B
:101EA000BDE8F081FE492068884249D0FC491831DC
:101EB0002068884244D0FA493031206888423FD0B7
:101EC000F7494831206888423AD0F54960312068A6
:101ED000884235D0F24978312068884230D0F049C4
:101EE0009031206888422BD0ED49A8312068884283
:101EF00026D0EC492068884222D0EA49183120686F
:101F000088421DD0E74930312068884218D0E54921
:101F100048312068884213D0E24960312068884205
:101F20000ED0E04978312068884209D0DD499031EF
:101F30002068884204D0DB49A8312068884201D15A
:101F4000012000E00020002873D0606A00B100BFCB
:101F500000BF002084F8340000BF022084F8350060
:101F6000CF492068884249D0CD491831206888423D
:101F700044D0CB493031206888423FD0C8494831ED
:101F8000206888423AD0C64960312068884235D0FE
:101F9000C34978312068884230D0C14990312068E7
:101FA00088422BD0BE49A8312068884226D0BD493E
:101FB0002068884222D0BB491831206888421DD051
:101FC000B84930312068884218D0B6494831206875
:101FD000884213D0B3496031206888420ED0B1499D
:101FE00078312068884209D0AE4990312068884213
:101FF00004D0AC49A8312068884206D12068006826
:1020000020F001002168086005E02068006820F0E9
:102010000100216808600DE000F0C4FCA0EB08009E
:10202000052807D920206065032084F835000120A9
:1020300036E76AE02068006800F001000028EBD174
:102040002068056898480540D4E9020108432169E1
:10205000084361690843A1690843E1690843216AAB
:1020600008430543606A042803D1D4E90B010843FF
:1020700005438E4800686FF30F00B0F1005F1DD379
:102080006068292802D360682E2811D960683F282B
:1020900002D3606842280BD96068472802D3606881
:1020A000482805D960684F2804D36068522801D8B1
:1020B000012000E0002008B145F48015206805608B
:1020C0002068456925F00705606A0543606A0428B1
:1020D0000DD1A06A0543E06A48B12046FEF78CFBAB
:1020E00028B140206065012084F83500D8E62068DA
:1020F00045612046FEF75CFA064694F85C0000F065
:102100001F013F208840B0609EE0694920688842F6
:1021100022D067491431206888421DD06449283193
:102120002068884218D062493C312068884213D028
:102130005F495031206888420ED05D496431206883
:10214000884209D05A4978312068884204D05849D9
:102150008C312068884201D1012000E00020E0B3EA
:1021600053492068884222D051491431206888425E
:102170001DD04F4928312068884218D04C493C3145
:102180002068884213D04A495031206888420ED0D6
:10219000474964312068884209D045497831206830
:1021A000884204D042498C312068884201D1012004
:1021B00000E0002000B100BF00BF002084F8340020
:1021C00000BF022084F835002068056839480540C2
:1021D000A068402802D1102106E02EE0A0688028E7
:1021E00001D1C10100E00021E06841EAD00120698D
:1021F00041EAD001606941EAD001A06941EAD00119
:10220000E06941EAD001206A41EA101005432068E4
:10221000056027492068401A1421B0FBF1F08000C6
:10222000E0652046FEF7C4F9074694F85C0000F02C
:102230001F0101208840786006E04020606503208F
:1022400084F8350001202BE61549206888427FD0AC
:1022500013491831206888427AD0114930312068FA
:10226000884275D00E4948312068884270D00C49A8
:102270006031206888426BD00949783120688842F3
:1022800066D0074990312068884261D00449A8315E
:10229000206888425CD003492068884258D00BE00F
:1022A00010000240100402403F8010FE0010005C4D
:1022B000085402580F00FEFF3B491831206888423D
:1022C00046D0394930312068884241D036494831BA
:1022D000206888423CD0344960312068884237D039
:1022E000314978312068884232D02F4990312068B6
:1022F00088422DD02C49A8312068884228D02B490B
:102300002068884224D029491431206888421FD08F
:1023100026492831206888421AD024493C31206857
:10232000884215D0214950312068884210D01F4979
:102330006431206888420BD01C497831206888427B
:1023400006D01A498C312068884200E000E001D1B3
:10235000012000E0002000B32046FEF79FF9A068AE
:10236000802801D1002060602079216E0860D4E9C6
:1023700019104860606860B16068082809D8204674
:10238000FEF7EEF90020E16E0860D4E91C10486009
:1023900003E00020E06620676067002060650120A0
:1023A00084F8350000207BE51004024008540258F0
:1023B0002DE9F04104460D4616461F464FF0000831
:1023C00014B90120BDE8F08100BF94F83400012861
:1023D00001D10220F6E7012084F8340000BF94F810
:1023E000350001287ED1022084F835000020606588
:1023F000E4492068884249D0E2491831206888427F
:1024000044D0E0493031206888423FD0DD4948312E
:10241000206888423AD0DB4960312068884235D054
:10242000D84978312068884230D0D6499031206828
:1024300088422BD0D349A8312068884226D0D2497F
:102440002068884222D0D0491831206888421DD0A7
:10245000CD4930312068884218D0CB4948312068B6
:10246000884213D0C8496031206888420ED0C649DE
:1024700078312068884209D0C34990312068884269
:1024800004D0C149A8312068884206D1206800687C
:1024900020F001002168086005E02068006820F055
:1024A0000100216808603B46324629462046FEF777
:1024B000FBF9B449206888424BD0B24918312068F2
:1024C000884246D0AF4930312068884241D0AD497A
:1024D0004831206888423CD0AA496031206888424F
:1024E00037D000E042E1A74978312068884230D0F7
:1024F000A4499031206888422BD0A249A831206895
:10250000884226D0A0492068884222D09E491831AE
:10251000206888421DD09C4930312068884218D0FC
:10252000994948312068884213D097496031206822
:1025300088420ED0944978312068884209D0924967
:1025400090312068884204D08F49A83120688842A1
:1025500001D1012000E0002080B12068006820F057
:102560001E0040F0160021680860206CB0B12068A1
:10257000006840F00800216808600FE020680068EB
:1025800020F00E0040F00A0021680860206C28B19D
:102590002068006840F004002168086079492068DC
:1025A000884270D077491831206888426BD07549CD
:1025B00030312068884266D07249483120688842AC
:1025C00061D070496031206888425CD06D497831B3
:1025D0002068884257D06B4990312068884252D099
:1025E0006849A831206888424DD0674920688842F0
:1025F00049D0654918312068884244D06249303159
:10260000206888423FD060494831206888423AD0EB
:102610005D4960312068884235D05B497831206857
:10262000884230D058499031206888422BD0564992
:10263000A8312068884226D054492068884222D098
:1026400052491431206888421DD0504928312068F1
:10265000884218D04D493C312068884213D04B49FC
:102660005031206888420ED0484964312068884241
:1026700009D0464978312068884204D043498C31DA
:102680002068884201D1012000E0002090B1206E36
:10269000006800F4803028B1206E006840F480703B
:1026A000216E0860E06E28B1E06E006840F4807032
:1026B000E16E086033492068884249D031491831B9
:1026C0002068884244D02F493031206888423FD06A
:1026D0002C494831206888423AD02A496031206824
:1026E000884235D0274978312068884230D0254942
:1026F0009031206888422BD02249A8312068884236
:1027000026D021492068884222D01F4918312068EC
:1027100088421DD01C4930312068884218D01A499F
:1027200048312068884213D01749603120688842B8
:102730000ED0154978312068884209D0124990316D
:102740002068884204D01049A8312068884206D108
:102750002068006840F001002168086010E02068EF
:10276000006840F001002168086009E000BF002017
:1027700084F8340000BF4FF4006060654FF001083A
:1027800040461FE610000240100402400854025860
:10279000F8B502460023734DDEE001279F400E6826
:1027A00006EA0704002C71D04E68012E08D04E684E
:1027B000022E05D04E68112E02D04E68122E13D173
:1027C00090685F000326BE40B0435F00CE68BE4005
:1027D00030439060506801269E40B0430E79C6F3A6
:1027E00000169E4030435060D0685F000326BE4014
:1027F000B0435F008E68BE403043D0604E68022E0A
:1028000002D04E68122E13D1DF0802F1200656F8CE
:1028100027005E07F70E0F26BE40B0435F07FF0E8E
:102820000E69BE403043DF0802F1200646F827005B
:1028300010685F000326BE40B0430E7906F0030621
:102840005F00BE40304310604E6806F08056B6F11F
:10285000805F1BD100BF444E366846F00206424FEF
:102860003E603E46366806F00206009600BF00BF96
:102870003E4E9F0856F827009E07370F0F26BE4092
:10288000B0433B4EB24202D100262EE063E0394E07
:10289000B24201D1012628E0374EB24201D10226D0
:1028A00023E0364EB24201D103261EE0344EB2423E
:1028B00001D1042619E0334EB24201D1052614E0BD
:1028C000314EB24201D106260FE0304EB24201D164
:1028D00007260AE02E4EB24201D1082605E02D4E11
:1028E000B24201D1092600E00A269F073F0FBE40F1
:1028F00030431E4E9F0846F827002868A0434E68C4
:1029000006F48036B6F5803F00D120432860686821
:10291000A0434E6806F40036B6F5003F00D12043D0
:1029200068604FF0B0463068A0434E6806F48016E9
:10293000B6F5801F00D120434FF0B046306070687C
:10294000A0434E6806F40016B6F5001F00D12043E0
:102950004FF0B04670605B1C0E68DE40002E7FF4C6
:102960001CAFF8BD80000058F44402580804005819
:10297000000002580004025800080258000C0258D7
:10298000001002580014025800180258001C025887
:10299000002002580024025801480068000C7047CB
:1029A0000010005C01480068704700000000002033
:1029B00003480068034909780844014908607047E2
:1029C000000000200800002010B5032000F020F9CE
:1029D00001F030FB10490968C1F303210F4A515C33
:1029E00001F01F0120FA01F40B48006800F00F000D
:1029F0001146085C00F01F0024FA00F00849086046
:102A0000084804600F2000F00FF808B1012010BD45
:102A100000F09AF80020FAE71844025822660008ED
:102A2000100000200C00002070B50446114800780A
:102A300008B9012070BD0F4800784FF47A71B1FBDE
:102A4000F0F00D490968B1FBF0F5284601F0FAFFF6
:102A500008B10120EEE7102C07D200222146501EBB
:102A600000F098F80548046001E00120E2E700204A
:102A7000E0E70000080000200C0000200400002017
:102A80004178154A11600178F9B1121D4168116051
:102A9000017B0907C27A41EA0261827A41EAC241B6
:102AA000427B41EA8241827B41EA4241C27B41EA68
:102AB0000241427A41EA0221027A41EA4201027865
:102AC0001143054A0832116005E00021024A121D37
:102AD0001160121D1160704798ED00E000BF00BF4B
:102AE00000BFBFF35F8F00BF00BF00BF0548006895
:102AF00020F48030034908600020024970310860EA
:102B00007047000024ED00E040F001010D4A116023
:102B10000C497039096841F480310A4A703A1160F1
:102B200000BF00BF00BFBFF34F8F00BF00BF00BF9B
:102B300000BF00BF00BFBFF36F8F00BF00BF00BF6B
:102B40007047000094ED00E008B500BF064800683B
:102B500040F00200044908600846006800F00200E6
:102B6000009000BF00BF08BDF4440258014608466B
:102B700000280DDB00BF00BF00F01F0301229A40B8
:102B800043099B0003F1E023C3F8002100BF00BF0D
:102B900000BF70472DE9F05F80460D46164603F0F2
:102BA0008DFB074639462A46334601F00700C0F13F
:102BB000070ABAF1040F02D94FF0040A01E0C0F18C
:102BC000070AD14600F1040ABAF1070F02D24FF00A
:102BD000000A01E0A0F1030AD4464FF0010A0AFA04
:102BE00009FAAAF1010A0AEA020A0AFA0CFA4FF0F3
:102BF000010B0BFA0CFBABF1010B0BEA030B4AEADE
:102C00000B042146404603F061FBBDE8F09F000045
:102C100000BF00F00702064B19684FF6FF0319408A
:102C2000044B0B4343EA0221014B196000BF70477C
:102C30000CED00E00000FA0570B504461548006888
:102C4000C0F3800048B91348006800F00700A042B4
:102C500001D0012070BD0020FCE70E48006820F084
:102C6000070020430B490860FFF79CFE054607E07C
:102C7000FFF798FE401BB0F57A7F01D90120E9E704
:102C8000044808380068C0F340300028F0D0002025
:102C9000E0E700000C48025810B501F081F9054941
:102CA0000968C1F30211044A515C01F01F01C840D8
:102CB00010BD0000204402582266000870B501468D
:102CC000844D2D6805F00303824D2D68C5F3053052
:102CD000804D2D1D2D68C5F300147E4D14352D68D3
:102CE000C5F3CC0515FB04F501EE105AB8EE411AF8
:102CF000F0EE410A00286FD023B1012B4ED0022BF9
:102D00006BD16BE0734D283D2D68C5F340153DB385
:102D1000704D283D2D68C5F3C1066F4D25FA06F2AA
:102D200001EE102AF8EE411A01EE100AB8EE411A2F
:102D300081EE812A9FED691AC0EE811A654D10352A
:102D40002D68C5F3080501EE105AB8EE411A31EEB0
:102D5000811AF7EE001A31EE211A22EE010A1CE068
:102D600001EE100AB8EE411ADFED5D1A81EE812AFC
:102D70009FED5A1AC0EE811A564D10352D68C5F3D5
:102D8000080501EE105AB8EE411A31EE811AF7EE3D
:102D9000001A31EE211A22EE010A5BE001EE100A60
:102DA000B8EE411ADFED4F1A81EE812A9FED4B1AE2
:102DB000C0EE811A474D10352D68C5F3080501EEA8
:102DC000105AB8EE411A31EE811AF7EE001A31EEC0
:102DD000211A22EE010A3DE077E01DE001EE100A23
:102DE000B8EE411A9FED402AC2EE011A9FED3B1A40
:102DF00080EE812A374D10352D68C5F3080501EEA8
:102E0000105AB8EE411A32EE011AB7EE002A31EE2E
:102E1000021A21EE810A1DE001EE100AB8EE411AF5
:102E2000DFED301A81EE812A9FED2C1AC0EE811A57
:102E3000284D10352D68C5F3080501EE105AB8EE7F
:102E4000411A31EE811AF7EE001A31EE211A22EE04
:102E5000010A00BF00BF1F4D10352D68C5F3462580
:102E600001EE105AB8EE411AF7EE001A31EE211AAF
:102E7000C0EE011ABCEEE11A81ED001A154D1035B5
:102E80002D68C5F3064501EE105AB8EE411AF7EE6B
:102E9000001A31EE211AC0EE011ABCEEE11A81EDE2
:102EA000011A0C4D10352D68C5F3066501EE105A58
:102EB000B8EE411AF7EE001A31EE211AC0EE011AEF
:102EC000BCEEE11A81ED021A03E000250D604D60B1
:102ED0008D6070BD284402580090D0030000004669
:102EE0000024744C0024744A0024F44A70B501464E
:102EF000844D2D6805F00303824D2D68C5F3055000
:102F0000804D2D1D2D68C5F300247E4D1C352D6888
:102F1000C5F3CC0515FB04F501EE105AB8EE411AC5
:102F2000F0EE410A00286FD023B1012B4ED0022BC6
:102F30006BD16BE0734D283D2D68C5F340153DB353
:102F4000704D283D2D68C5F3C1066F4D25FA06F278
:102F500001EE102AF8EE411A01EE100AB8EE411AFD
:102F600081EE812A9FED691AC0EE811A654D1835F0
:102F70002D68C5F3080501EE105AB8EE411A31EE7E
:102F8000811AF7EE001A31EE211A22EE010A1CE036
:102F900001EE100AB8EE411ADFED5D1A81EE812ACA
:102FA0009FED5A1AC0EE811A564D18352D68C5F39B
:102FB000080501EE105AB8EE411A31EE811AF7EE0B
:102FC000001A31EE211A22EE010A5BE001EE100A2E
:102FD000B8EE411ADFED4F1A81EE812A9FED4B1AB0
:102FE000C0EE811A474D18352D68C5F3080501EE6E
:102FF000105AB8EE411A31EE811AF7EE001A31EE8E
:10300000211A22EE010A3DE077E01DE001EE100AF0
:10301000B8EE411A9FED402AC2EE011A9FED3B1A0D
:1030200080EE812A374D18352D68C5F3080501EE6D
:10303000105AB8EE411A32EE011AB7EE002A31EEFC
:10304000021A21EE810A1DE001EE100AB8EE411AC3
:10305000DFED301A81EE812A9FED2C1AC0EE811A25
:10306000284D18352D68C5F3080501EE105AB8EE45
:10307000411A31EE811AF7EE001A31EE211A22EED2
:10308000010A00BF00BF1F4D18352D68C5F3462546
:1030900001EE105AB8EE411AF7EE001A31EE211A7D
:1030A000C0EE011ABCEEE11A81ED001A154D18357B
:1030B0002D68C5F3064501EE105AB8EE411AF7EE39
:1030C000001A31EE211AC0EE011ABCEEE11A81EDB0
:1030D000011A0C4D18352D68C5F3066501EE105A1E
:1030E000B8EE411AF7EE001A31EE211AC0EE011ABD
:1030F000BCEEE11A81ED021A03E000250D604D607F
:103100008D6070BD284402580090D0030000004636
:103110000024744C0024744A0024F44A2DE9F04140
:1031200004460025A846206800F00060B0F1006F5A
:1031300030D1606E48B1B0F5801F0DD0B0F5001FE2
:1031400010D0B0F5401F15D113E0F948006840F4E5
:103150000030F74908600FE00221201D02F0A4F9B9
:10316000054609E0022104F1240002F04FFA054669
:1031700002E001E0012500BF00BF55B9EC48243052
:10318000006820F44010616E0843E949243108606A
:1031900000E0A846208800F48070B0F5807F2DD133
:1031A000606D05281AD2DFE800F0030A1017180036
:1031B000DF48006840F40030DD49086010E000217D
:1031C000201D02F071F905460AE0002104F12400F7
:1031D00002F01CFA054603E002E001E0012500BF11
:1031E00000BF55B9D2482430006820F00700616D57
:1031F0000843CF492431086000E0A846208800F445
:103200000070B0F5007F33D1A06D802817D003DCAB
:1032100040B140281CD10CE0C02817D0B0F5807F09
:1032200016D114E0C248006840F40030C04908607C
:1032300010E00021201D02F037F905460AE00021C8
:1032400004F1240002F0E2F9054603E002E001E0A7
:10325000012500BF00BF55B9B5482430006820F4EF
:10326000E070A16D0843B2492431086000E0A8462F
:10327000208800F48060B0F5806F38D1D4F8A400C5
:10328000B0F5800F19D004DC50B1B0F5001F1DD18E
:103290000DE0B0F5C00F17D0B0F5000F16D114E057
:1032A000A348006840F40030A149086010E0002104
:1032B000201D02F0F9F805460AE0002104F124007F
:1032C00002F0A4F9054603E002E001E0012500BF99
:1032D00000BF5DB996482C30006820F46000D4F837
:1032E000A410084392492C31086000E0A8462088C9
:1032F00000F40060B0F5006F38D1D4F8A800B0F148
:10330000007F19D004DC50B1B0F1807F1DD10DE0F9
:10331000B0F1407F17D0B0F1806F16D114E084482F
:10332000006840F400308249086010E00021201D50
:1033300002F0BAF805460AE0002104F1240002F088
:1033400065F9054603E002E001E0012500BF00BF8A
:103350005DB977482C30006820F0E060D4F8A81000
:10336000084373492C31086000E0A846206800F04B
:103370000070B0F1007F27D1A06CA0B1102804D05C
:10338000202809D030280FD10CE06948006840F4AB
:1033900000306749086009E00221201D02F084F82E
:1033A000054603E002E001E0012500BF00BF55B97A
:1033B0005F482030006820F03000A16C08435C4971
:1033C0002031086000E0A846208800F48050B0F565
:1033D000805F36D1E06DB0F5005F19D004DC50B1EC
:1033E000B0F5805F1DD10DE0B0F5405F17D0B0F5AE
:1033F000804F16D114E04E48006840F400304C492C
:10340000086010E00021201D02F04EF805460AE099
:10341000002104F1240002F0F9F8054603E002E07F
:1034200001E0012500BF00BF55B9414824300068C4
:1034300020F4E040E16D08433D492431086000E09C
:10344000A846208800F40050B0F5005F34D1206E0B
:10345000B0F5403F1DD007DC68B1B0F5803F0BD020
:10346000B0F5003F18D10DE0B0F5802F12D0B0F5C7
:10347000A02F11D10FE011E00121201D02F014F85E
:1034800005460BE0012104F1240002F0BFF80546D7
:1034900004E003E002E001E0012500BF00BF55B9F0
:1034A00023482430006820F4E020216E084320499E
:1034B0002431086000E0A846208800F48040B0F580
:1034C000804F38D1D4F8AC00B0F1405F1DD007DC9C
:1034D00068B1B0F1805F0BD0B0F1005F18D10DE0A2
:1034E000B0F1804F12D0B0F1A04F11D10FE011E038
:1034F0000121201D01F0D8FF05460BE0012104F158
:10350000240002F083F8054604E003E002E001E055
:10351000012500BF00BF6DB905482C30006820F0C0
:10352000E040D4F8AC10084301492C31086002E0B7
:103530002C440258A846208800F40040B0F5004F03
:1035400026D1E06E98B1B0F1805F03D0B0F1005F9A
:103550000ED106E0F948006840F40030F7490860F1
:1035600008E00121201D01F09FFF054602E001E077
:10357000012500BF00BF55B9F0482430006820F095
:103580004050E16E0843ED492431086000E0A84650
:10359000206800F08070B0F1807F27D1606CA0B10E
:1035A000012804D0022809D003280FD10CE0E348F9
:1035B000006840F40030E149086009E00221201D64
:1035C00001F072FF054603E002E001E0012500BFC3
:1035D00000BF55B9D9482030006820F00300616C65
:1035E0000843D6492031086000E0A846206800F46E
:1035F0008000B0F5800F7DD1D148006840F4807024
:10360000CF490860FFF7CEF9064606E0FFF7CAF992
:10361000801B642801D9032505E0C948006800F42F
:1036200080700028F2D000BF85BBC44844300068D9
:1036300000F44070B4F8B01001F44071884213D027
:10364000BE484430006820F44077BC4844300068ED
:1036500040F48030B949443108600846006820F4DD
:103660008030086008460760D4F8B000B0F5807F6D
:1036700015D1FFF797F9064609E0FFF793F9801B8C
:1036800041F28831884202D9032507E038E0AB488F
:1036900044300068C0F340000028EED000BF55BBA6
:1036A00000BFB4F8B00000F44070B0F5407F0ED118
:1036B000A2481C38006820F47C51A24AD4F8B0001B
:1036C000104041EA10109D491C39086007E09B48F2
:1036D0001C38006820F47C5098491C3908609748D1
:1036E00044300068B4F8B010C1F30B0108439349AB
:1036F000443101E005E001E0086002E0A84600E096
:10370000A846207800F0010068B3A06F182819D0EF
:1037100005DC48B1082808D0102816D10BE0202875
:1037200011D0282811D10FE011E00121201D01F056
:10373000BBFE05460BE0012104F1240001F066FF09
:10374000054604E003E002E001E0012500BF00BF00
:1037500055B97A482830006820F03800A16F084336
:1037600076492831086000E0A846207800F0020081
:10377000022828D1606F062815D2DFE800F0030484
:103780000A11121311E00121201D01F08DFE0546E2
:103790000BE0012104F1240001F038FF054604E0AC
:1037A00003E002E001E0012500BF00BF55B9634816
:1037B0002830006820F00700616F08435F49283116
:1037C000086000E0A846207800F0040004282AD110
:1037D000D4F89000062815D2DFE800F003040A119F
:1037E000121311E00121201D01F05EFE05460BE0E1
:1037F000012104F1240001F009FF054604E003E083
:1038000002E001E0012500BF00BF5DB94B482C304C
:10381000006820F00700D4F89010084347492C3185
:10382000086000E0A846207800F02000202836D16B
:10383000D4F88C00B0F1405F1DD007DC68B1B0F166
:10384000805F0BD0B0F1005F18D10DE0B0F1804F78
:1038500012D0B0F1A04F11D10FE011E00021201DD6
:1038600001F022FE05460BE0022104F1240001F0E4
:10387000CDFE054604E003E002E001E0012500BFC3
:1038800000BF5DB92D482830006820F0E040D4F832
:103890008C10084329492831086000E0A8462078A8
:1038A00000F04000402836D1D4F89800B0F5406FC1
:1038B0001DD007DC68B1B0F5806F0BD0B0F5006F9C
:1038C00018D10DE0B0F5805F12D0B0F5A05F11D136
:1038D0000FE011E00021201D01F0E6FD05460BE0A0
:1038E000022104F1240001F091FE054604E003E00A
:1038F00002E001E0012500BF00BF5DB90F482C3098
:10390000006820F4E050D4F8981008430B492C319B
:10391000086000E0A846207800F0800080283AD1B6
:10392000D4F89C00B0F5C04F23D00DDC98B1B0F5B1
:10393000005F11D0B0F5804F1ED113E02C44025827
:1039400000480258FFFCFF0FB0F5004F12D0B0F551
:10395000204F11D10FE011E00021201D01F0A4FD46
:1039600005460BE0022104F1240001F04FFE05465C
:1039700004E003E002E001E0012500BF00BF4DB913
:10398000BE48006820F46040D4F89C100843BB494E
:10399000086000E0A846207800F00800082817D149
:1039A000D4F88000B0F5805F07D1022104F1240033
:1039B00001F02CFE08B14FF00108B048001F00686C
:1039C00020F44050D4F880100843AC49091F086027
:1039D000207800F01000102815D1D4F89400B0F52C
:1039E000807F07D1022104F1240001F00FFE08B10D
:1039F0004FF00108A148006820F44070D4F89410FA
:103A000008439E490860206800F40020B0F5002FAC
:103A100026D1D4F8A00030B1B0F5803F09D0B0F580
:103A2000003F0ED10CE00021201D01F03DFD0546B8
:103A300009E0022104F1240001F0E8FD054602E05E
:103A400001E0012500BF00BF4DB98C48006820F49B
:103A50004030D4F8A01008438849086000E0A84628
:103A6000206800F48020B0F5802F2DD1D4F8840098
:103A7000B0F5801F06D0B0F5001F0CD0B0F5401F88
:103A800011D10FE07D482C38006840F400307B49AC
:103A90002C39086009E0012104F1240001F0B6FD91
:103AA000054602E001E0012500BF00BF5DB9734893
:103AB000001F006820F44010D4F8841008436F49B8
:103AC000091F086000E0A846206800F48030B0F5C7
:103AD000803F24D1E06C18B1B0F5803F0FD108E0F1
:103AE00066482C38006840F4003064492C3908607E
:103AF00007E00221201D01F0D7FC054601E0012569
:103B000000BF00BF55B95D480C38006820F4803014
:103B1000E16C084359490C39086000E0A846206868
:103B200000F00050B0F1005F07D1022104F1240041
:103B300001F06CFD08B14FF00108206800F400307E
:103B4000B0F5003F27D1E06FA0B1B0F5807F06D07F
:103B5000B0F5007F0CD0B0F5407F0CD109E04748AC
:103B60002C38006840F4003044492C39086004E0E7
:103B700003E002E001E0012500BF00BF55B93F4866
:103B8000001F006820F44070E16F08433B49091FA3
:103B9000086000E0A846206800F48010B0F5801F9F
:103BA00009D136480838006820F00040216F0843EA
:103BB000324908390860206800F08050B0F1805F19
:103BC0000AD12E484838006820F48040D4F8B41058
:103BD00008432A4948390860206800F40010B0F50D
:103BE000001F09D125480838006820F08070A16EB8
:103BF0000843224908390860206800F08040B0F18D
:103C0000804F11D100BF1D484838006820F40040A3
:103C10001A494839086008460068D4F8B8100843C3
:103C200016494839086000BF206800F00040B0F134
:103C3000004F09D111480C38006820F04050216D28
:103C400008430E490C390860206800F40000B0F504
:103C5000000F0AD10948001F006820F44000D4F882
:103C6000881008430549091F0860B8F1000F02D108
:103C70000020BDE8F0810120FBE700005844025815
:103C80002DE9F04104460D4614B90120BDE8F0814C
:103C9000BD48006800F00F00A8420ED2BA48006884
:103CA00020F00F002843B84908600846006800F07B
:103CB0000F00A84201D00120E8E7207800F00400BE
:103CC00004280ED1B1492069096801F070018842C9
:103CD00007D9AE48006820F0700021690843AB495D
:103CE0000860207800F00800082811D1A749091DB4
:103CF0006069096801F07001884209D9A348001D74
:103D0000006820F0700061690843A049091D08603F
:103D1000207800F01000102811D19C49091DA069DD
:103D2000096801F4E061884209D99848001D0068DB
:103D300020F4E060A16908439449091D08602078D7
:103D400000F02000202811D190490831E06909686D
:103D500001F07001884209D98C480830006820F0D1
:103D60007000E1690843894908310860207800F053
:103D7000020002280ED18549E068096801F00F01B0
:103D8000884207D98148006820F00F00E1680843A5
:103D90007E490860207800F00100002850D07B4860
:103DA000006820F47060A168084378490860606882
:103DB000022807D1754818380068C0F34040F8B9A8
:103DC000012063E76068032807D17048183800684D
:103DD000C0F34060A0B9012058E76068012807D10E
:103DE0006A4818380068C0F3002048B901204DE740
:103DF000664818380068C0F3800008B9012045E71C
:103E000062480838006820F00700616808435F498D
:103E100008390860FEF7C6FD064608E0FEF7C2FD59
:103E2000801B41F28831884201D903202EE7574890
:103E30000838006800F038006168B0EBC10FEDD1C0
:103E4000207800F0020002280ED15049E06809688D
:103E500001F00F01884207D24C48006820F00F00A3
:103E6000E1680843494908604748006800F00F00CE
:103E7000A8420ED94448006820F00F002843424968
:103E800008600846006800F00F00A84201D0012039
:103E9000FCE6207800F0040004280ED13B4920699C
:103EA000096801F07001884207D23848006820F0A4
:103EB00070002169084335490860207800F0080047
:103EC000082811D13149091D6069096801F07001A4
:103ED000884209D22D48001D006820F070006169F9
:103EE00008432A49091D0860207800F010001028B6
:103EF00011D12649091DA069096801F4E0618842D1
:103F000009D22248001D006820F4E060A16908433E
:103F10001E49091D0860207800F02000202811D1DA
:103F20001A490831E069096801F07001884209D234
:103F300016480830006820F07000E1690843134912
:103F40000831086000F076F810490968C1F30321D0
:103F50000F4A515C01F01F0120FA01F70B4800687D
:103F600000F00F001146085C00F01F0027FA00F077
:103F7000084908600848076008480068FEF754FDD3
:103F80008046404682E60000002000521844025855
:103F900022660008100000200C0000200400002011
:103FA00010B500F047F80D490968C1F303210C4A28
:103FB000515C01F01F0120FA01F40848006800F08C
:103FC0000F001146085C00F01F0024FA00F00549BC
:103FD0000860054804600846006810BD184402588F
:103FE00022660008100000200C00002000B5FFF73A
:103FF000D7FF05490968C1F30211044A515C01F079
:104000001F01C84000BD00001C4402582266000881
:1040100000B5FFF7C5FF05490968C1F30221044A4D
:10402000515C01F01F01C84000BD00001C44025853
:1040300022660008F0B5824E366806F0380636B1C2
:10404000082E15D0102E15D0182E7DD114E07C4EE0
:10405000103E3668C6F3401646B1794E103E3668BB
:10406000C6F3C107774E26FA07F000E07548E5E091
:104070007548E3E07548E1E0714E1836366806F0A1
:1040800003046F4E18363668C6F305116C4E1C36A5
:10409000366806F001056A4E24363668C6F3CC064B
:1040A00016FB05F601EE106AB8EE410A002971D040
:1040B00024B1012C50D0022C6DD16DE0604E103E29
:1040C0003668C6F340163EB35D4E103E3668C6F302
:1040D000C1075C4E26FA07F301EE103AF8EE411ADA
:1040E00001EE101AB8EE411A81EE812A9FED581A9E
:1040F000C0EE011A524E20363668C6F3080601EEAD
:10410000106AB8EE411A31EE811AF7EE001A31EE5C
:10411000211A62EE010A1EE001EE101AB8EE411AF1
:10412000DFED4C1A81EE812A9FED491AC0EE011A8B
:10413000434E20363668C6F3080601EE106AB8EE24
:10414000411A31EE811A00E076E0F7EE001A31EE06
:10415000211A62EE010A5BE001EE101AB8EE411A74
:104160009FED3D2AC2EE011A9FED391A80EE012A19
:10417000334E20363668C6F3080601EE106AB8EEF4
:10418000411A32EE011AB7EE002A31EE021A61EE40
:10419000810A3DE04EE01DE001EE101AB8EE411A32
:1041A000DFED2E1A81EE812A9FED291AC0EE011A49
:1041B000234E20363668C6F3080601EE106AB8EEC4
:1041C000411A31EE811AF7EE001A31EE211A62EE31
:1041D000010A1DE001EE101AB8EE411A9FED1E2AE9
:1041E000C2EE011A9FED1A1A80EE012A144E2036F3
:1041F0003668C6F3080601EE106AB8EE411A32EED0
:10420000011AB7EE002A31EE021A61EE810A00BFF0
:1042100000BF0B4E20363668C6F34626721C01EEF0
:10422000102AB8EE411AC0EE811ABCEEE11A11EE66
:10423000100A00E0002001E0034800BF00BFF0BD0D
:10424000104402580090D00300093D0000127A008B
:10425000000000460024744C0024744A0024F44AF0
:104260002DE9F047044614B90120BDE8F087207815
:1042700000F00100002870D0FE48006800F0380807
:10428000FC481830D0F80090B8F1100F06D0B8F103
:10429000180F0FD109F0030002280BD1F548103890
:1042A0000068C0F3404000286AD06068002867D1E9
:1042B0000120DAE700BF6068B0F5803F08D1ED4823
:1042C0001038006840F48030EA49103908602EE068
:1042D000606868B9E7481038006820F48030E54924
:1042E000103908600846006820F4802008601EE04D
:1042F0006068B0F5A02F0DD1DE481038006840F49A
:104300008020DC49103908600846006840F480309D
:1043100008600CE0D7481038006820F48030D54998
:10432000103908600846006820F48020086000BF4B
:10433000606898B1FEF736FB054606E0FEF732FBF3
:10434000401B642801D903208FE7CA481038006851
:10435000C0F340400028F1D012E012E0FEF722FB4B
:10436000054606E0FEF71EFB401B642801D903202A
:104370007BE7C04810380068C0F340400028F1D106
:1043800000BF207800F0020002287BD1B948006805
:1043900000F03808B7481830D0F80090B8F1000F96
:1043A00005D0B8F1180F3AD109F00300B0BBB148FD
:1043B00010380068C0F3800018B1E06808B9012027
:1043C00053E700BFFEF7E8FA41F20301884219D82B
:1043D000206940280AD1A7480C38006820F47C30B6
:1043E00040F40030A3490C39086016E0A1480C38AD
:1043F000006820F47C30216940EA01309D490C3985
:1044000008600AE09B480C38006820F0FE40217CE0
:1044100040EA016097490C39086067E0FFE7E0680F
:1044200088B394481038006820F01900E168084308
:10443000904910390860FEF7B5FA054606E0FEF728
:10444000B1FA401B022801D903200EE78948103831
:104450000068C0F380000028F1D000BFFEF79CFA8E
:1044600041F2030188421BD8206940280CD18148C1
:104470000C38006820F47C3040F400307D490C3961
:10448000086018E033E017E07A480C38006820F440
:104490007C30216940EA013076490C3908600AE035
:1044A00074480C38006820F0FE40217C40EA01602E
:1044B00070490C39086019E06E481038006820F027
:1044C00001006C4910390860FEF76CFA054606E0F9
:1044D000FEF768FA401B022801D90320C5E66548AB
:1044E00010380068C0F380000028F1D100BF2078A8
:1044F00000F0100010287CD15E48006800F03808F9
:104500005C481830D0F80090B8F1080F06D0B8F128
:10451000180F3DD109F00300012839D15548103852
:104520000068C0F3002020B1E069802801D001209C
:104530009BE600BFFEF730FA41F2030188421AD829
:10454000206A20280AD14B480C38006820F0F84037
:1045500040F0804047490C39086018E045480C3865
:10456000006820F0F84094F8201040EA816041494A
:104570000C3908600BE03F48001F006820F07C50B9
:1045800094F8201040EA01603A49091F086066E08B
:10459000E06978B337481038006840F0800035494A
:1045A00010390860FEF7FEF9054606E0FEF7FAF955
:1045B000401B022801D9032057E62E481038006816
:1045C000C0F300200028F1D000BFFEF7E5F941F26A
:1045D000030188421CD8206A20280CD125480C38B9
:1045E000006820F0F84040F0804022490C39086013
:1045F0001AE035E019E01F480C38006820F0F84058
:1046000094F8201040EA81601A490C3908600BE0E8
:104610001848001F006820F07C5094F8201040EAF1
:1046200001601449091F086019E012481038006839
:1046300020F080000F4910390860FEF7B3F90546F5
:1046400006E0FEF7AFF9401B022801D903200CE673
:10465000084810380068C0F300200028F1D100BFDE
:10466000207800F00800082834D16069D8B10148EA
:10467000643001E010440258006840F00100EF4946
:104680000860FEF78FF9054606E0FEF78BF9401B40
:10469000022801D90320E8E5E8480068C0F340009B
:1046A0000028F2D016E0E548006820F00100E34958
:1046B0000860FEF777F9054606E0FEF773F9401B40
:1046C000022801D90320D0E5DC480068C0F340008F
:1046D0000028F2D1207800F02000202836D1A069EF
:1046E000D0B1D6487438006840F48050D34974394A
:1046F0000860FEF757F9054606E0FEF753F9401B40
:10470000022801D90320B0E5CC4874380068C0F312
:1047100040300028F1D019E0C8487438006820F40F
:104720008050C64974390860FEF73CF9054606E03A
:10473000FEF738F9401B022801D9032095E5BF4850
:1047400074380068C0F340300028F1D1207800F0C0
:10475000040004287DD1BA48006840F48070B8494C
:104760000860FEF71FF9054606E0FEF71BF9401B3F
:10477000642801D9032078E5B148006800F480700E
:104780000028F2D000BFA068012808D1AB48001F64
:10479000006840F00100A949091F08602DE0A068E9
:1047A00068B9A648001F006820F00100A349091F4E
:1047B00008600846006820F0040008601DE0A0685A
:1047C00005280DD19D48001F006840F004009B495A
:1047D000091F08600846006840F0010008600CE00E
:1047E0009648001F006820F001009449091F0860E6
:1047F0000846006820F00400086000BFA068A0B16F
:10480000FEF7D0F8054608E0FEF7CCF8401B41F271
:104810008831884201D9032027E58848001F0068B5
:10482000C0F340000028EFD013E0FEF7BBF80546C8
:1048300008E0FEF7B7F8401B41F28831884201D901
:10484000032012E57D48001F0068C0F340000028E7
:10485000EFD1606A00287DD078486438006800F0A5
:104860003800182877D0606A022875D173487438E8
:10487000006820F08070714974390860FEF792F882
:10488000054606E0FEF78EF8401B022801D90320FA
:10489000EBE46A4874380068C0F340600028F1D146
:1048A00000BFD4E90A1041EA001064494C39096894
:1048B00040F2F3329143084360494C390860208E3E
:1048C000401EC0F30800616B491E4FF47E4202EAAD
:1048D00041210843218F491ED20102EA01410843C8
:1048E0003C21095D491E120202EA01610843534955
:1048F0004439086000BF081F006820F00100091F4C
:1049000008604E48403800684FF6F8718843A16C43
:1049100040EAC100494940390860484848380068C1
:1049200020F00C00216C08434449483908600846CF
:10493000006820F00200616C084340494839086073
:104940000846006840F4803008600846006840F47B
:10495000003002E06FE041E025E0086008460068B2
:1049600040F4802008600846006840F001000860BC
:1049700032487438006840F08070304974390860FB
:10498000FEF710F8054606E0FEF70CF8401B02287B
:1049900001D9032069E4294874380068C0F34060F5
:1049A0000028F1D047E025487438006820F0807076
:1049B000224974390860FDF7F5FF054606E0FDF76A
:1049C000F1FF401B022801D903204EE41B48743834
:1049D0000068C0F340600028F1D12CE017484C3843
:1049E0000768164844380668606A012821D007F035
:1049F0000301A06A81421CD1C7F30511E06A884215
:104A000017D1C6F30801206B401E814211D1606BA3
:104A1000401EC6F3462188420BD1A06B401EC6F350
:104A20000641884205D1E06B401EC6F3066188420C
:104A300001D0012019E4002017E40000744402585A
:104A40000048025870B504462546681EB0F1807FC4
:104A500001D301200FE0681E4FF0E02148610F21D3
:104A60004FF0FF3001F032FC00204FF0E021886170
:104A700007200861002070BD70B5044600BF94F89F
:104A80008000012801D1022070BD012084F880003F
:104A900000BF2420C4F884002068056820680068EE
:104AA00020F001002168086045F000554FF00050EB
:104AB000606620680560204600F050FF2020C4F8A2
:104AC000840000BF002084F8800000BF00BFDBE747
:104AD0007047704770B504460D4600BF94F88000DB
:104AE000012801D1022070BD012084F8800000BFA0
:104AF0002420C4F88400206806682068006820F03C
:104B00000100216808602068806820F06060284308
:104B100021688860204600F021FF20680660202080
:104B2000C4F8840000BF002084F8800000BF00BFEC
:104B3000D9E770B504460D4600BF94F880000128FF
:104B400001D1022070BD012084F8800000BF242024
:104B5000C4F88400206806682068006820F001001E
:104B6000216808602068806820F060402843216840
:104B70008860204600F0F2FE206806602020C4F81D
:104B8000840000BF002084F8800000BF00BFD9E788
:104B900070477047704700002DE9F04704462068D1
:104BA000C569206806682068876840F60F0005EA36
:104BB0000009B9F1000F0FD105F0200060B106F037
:104BC000200010B907F0805030B1206F10B120469E
:104BD000216F8847BDE8F087B9F1000F7ED0DE482D
:104BE000384018B9DD4830400028F7D005F0010002
:104BF00058B106F4807040B1012021680862D4F8F1
:104C00008C0040F00100C4F88C0005F0020058B19F
:104C100007F0010040B1022021680862D4F88C003E
:104C200040F00400C4F88C0005F0040058B107F00F
:104C3000010040B1042021680862D4F88C0040F0E3
:104C40000200C4F88C0005F0080070B106F02000E6
:104C500010B9C148384040B1082021680862D4F832
:104C60008C0040F00800C4F88C0005F4006060B1CE
:104C700006F0806048B14FF4006021680862D4F803
:104C80008C0040F02000C4F88C00D4F88C00002880
:104C900044D005F0200050B106F0200010B907F014
:104CA000805020B1206F10B12046216F8847D4F882
:104CB0008CA02068806800F04000402802D00AF0F4
:104CC000280028B3204600F089FF2068806800F0A3
:104CD0004000402818D12068806800E01FE020F0E4
:104CE000400021688860E06F50B19D48E16F086521
:104CF000E06FFCF785F988B1E06F016D88470DE042
:104D00002046FFF747FF09E02046FFF743FF05E095
:104D10002046FFF73FFF0020C4F88C005AE7E06E02
:104D2000012872D105F0100000286ED006F01000A6
:104D30000028FAD01020216808622068806800F0FE
:104D4000400040287ED1E06F00688649884258D0F4
:104D5000E06F006883491831884252D0E06F0068E4
:104D60008049303188424CD0E06F00687D4948313D
:104D7000884246D0E06F00687A496031884240D06E
:104D8000E06F00687749783188423AD0E06F006878
:104D900074499031884234D0E06F00687149A8317D
:104DA00088422ED0E06F00686F49884229D0E06FBA
:104DB00000686D491831884223D0E06F00686A4965
:104DC000303188421DD0E06F006867494831884221
:104DD00017D0E06F006864496031884211D0E06FFD
:104DE00000686149783188420BD0E06F00685E4905
:104DF0009031884205D0E06F00685B49A831884255
:104E000004D1E06F0068406803E068E0E06F00688C
:104E100040681FFA80F8B8F1000F35D0B4F85C0094
:104E2000404531DDA4F85E80E06FC069B0F5807F59
:104E300021D02068006820F4807021680860206814
:104E4000806800E021E020F001002168886020688F
:104E5000806820F04000216888602020C4F8880025
:104E60000020E0662068006820F0100021680860DB
:104E7000E06FFBF757FEB4F85C00B4F85E20801AD0
:104E800081B22046FFF724FEA4E634F85C0F618867
:104E9000401A1FFA80F860885C3CF8B1B8F1000F46
:104EA0001CD02068006820F4907021680860206899
:104EB00080682949C9430840216888602020C4F8D7
:104EC00088000020E06620672068006820F010005D
:104ED0002168086041462046FFF7FAFD7AE605F4AE
:104EE000801050B107F4800038B14FF48010216871
:104EF00008622046FFF74DFE6CE605F0800058B1D1
:104F000006F0800010B907F4000028B1606F10B1FE
:104F10002046616F88475DE605F0400030B106F03D
:104F2000400018B1204600F077FE53E605F400007B
:104F300030B106F0804018B12046FFF729FE49E65F
:104F400005F0807030B106F0004018B12046FFF740
:104F5000C0FD3FE600BF3DE6010000102001000457
:104F6000235B0008100002401004024010B5044604
:104F70000CB9012010BDA06900B100E000BFD4F859
:104F8000840028B9002084F88000204600F02AF828
:104F90002420C4F884002068006820F00100216803
:104FA0000860204600F05AFE012800D1E2E7A06A1E
:104FB00010B1204600F0FEFC2068406820F49040CC
:104FC000216848602068806820F02A002168886095
:104FD0002068006840F0010021680860204600F069
:104FE00065FDC7E710B5B6B00446142131A8FBF73C
:104FF00068FABC2102A8FBF764FA7149206888426C
:1050000078D10220029000201F9002A8FEF786F8B7
:1050100008B1FBF784FD00BF6A48006840F48010C7
:10502000684908600846006800F48010019000BFDD
:1050300000BF00BF63480838006840F004006149C1
:10504000083908600846006800F00400019000BFBD
:1050500000BF00BF0846006840F00800086008462E
:10506000006800F00800019000BF00BF4FF48050BE
:1050700031900220329000203390349008203590F7
:1050800031A95148FDF784FB042031900220329071
:105090000020339034900820359031A94B48FDF71B
:1050A00077FB4B484B490860422048604021494803
:1050B00081600021C1604FF480610161490041615C
:1050C000890081610021C16101624162FCF7E0FE5B
:1050D00008B1FBF724FD00BF3E48A067846300BF12
:1050E000002211463520FDF755FD3520FDF73EFD28
:1050F00063E0FFE73849206888425ED101200290D2
:105100000020209002A8FEF709F808B1FBF707FD80
:1051100000BF2C480830006840F0200029490831C1
:1051200008600846006800F02000019000BF00BF42
:1051300000BF24480838006840F0040021490839BD
:1051400008600846006800F00400019000BF00BF3E
:10515000C0203190022032900020339034900720FC
:10516000359031A91848FDF713FB194818381B4929
:105170000860482048604021184881600021C160D3
:105180004FF4806101614900416189008161002122
:10519000C16101624162FCF77BFE08B1FBF7BFFC15
:1051A00000BF0E48A067846300BF0022114647205D
:1051B000FDF7F0FC4720FDF7D9FC36B010BD00002C
:1051C00000500040E844025800080258000C025801
:1051D000280002403401002000140140AC010020EE
:1051E00070B504460E461546D4F8840020284BD1ED
:1051F00006B10DB9012070BD00BF94F880000128F0
:1052000001D10220F7E7012084F8800000BF44F8B4
:10521000506FA580E5800020E06321206063A06AD4
:10522000503C08B31948A16FC8631948A16F0864BE
:105230001848A16FC8640020A16F0865236803F1B6
:1052400028022B46216DA06FFDF7B2F860B1102047
:10525000C4F88C0000BF002084F8800000BF20202C
:10526000C4F884000120C6E740202168086200BF1E
:10527000002084F8800000BF2068806840F0800033
:10528000216888600020B6E70220B4E7995B000837
:10529000CF5B00083B5B00087047704700BFFEE72C
:1052A0001FB500200090019002900390FDF716FCBE
:1052B00001208DF800004FF01050019012208DF861
:1052C000080003208DF80B0001208DF80F0000204E
:1052D0008DF80E008DF80D008DF8010001208DF87D
:1052E0000A0000208DF809008DF80C006846FDF7D3
:1052F000C7FB0420FDF708FC1FBD000008B500BF78
:105300000E48006840F001000C490860084600683B
:1053100000F00100009000BF00BF002211460B20EA
:10532000FDF738FC0B20FDF721FC002211460C2074
:10533000FDF730FC0C20FDF719FC08BDD8440258DD
:1053400008B500BF1A48006840F08000184908609E
:105350000846006800F08000009000BF00BF00BF5A
:105360000846006840F0040008600846006800F045
:105370000400009000BF00BF00BF0846006840F076
:10538000010008600846006800F00100009000BFBE
:1053900000BF00BF0846006840F0080008600846EB
:1053A000006800F00800009000BF00BF08BD0000CA
:1053B000E044025810B51948194908601948486076
:1053C0004FF48051164881600021C16001610C21B9
:1053D000416100218161C161016241620020104987
:1053E00088620846FFF7C2FD08B1FBF798FB4FF053
:1053F00080410B48FFF79DFB08B1FBF790FB0021B4
:105400000748FFF767FB08B1FBF789FB0448FFF784
:1054100033FB08B1FBF783FB10BD000000500040D8
:105420001400002090D0030010B5194819490860F5
:10543000194848604FF48051164881600021C160CE
:1054400001610C21416100218161C1610162416200
:105450000020104988620846FFF788FD08B1FBF775
:105460005EFB4FF080410B48FFF763FB08B1FBF791
:1054700056FB00210748FFF72DFB08B1FBF74FFB58
:105480000448FFF7F9FA08B1FBF749FB10BD00002B
:1054900000140140A400002090D0030000BFFEE7EC
:1054A00000BFFEE7704700002DE9F04104460E46BC
:1054B00000275548006800F00300032802D10120AE
:1054C000BDE8F08150482838006820F080604E49DF
:1054D00028390860FDF766FA054606E0FDF762FA2E
:1054E000401B022801D90320EAE747482838006812
:1054F000C0F3C0600028F1D100BF4348006820F429
:105500007C30216840EA01303F490860A088401E95
:10551000C0F30800A168491E4FF47E4202EA41210F
:105520000843A189491ED20102EA01410843217CB6
:10553000491E120202EA0161084333491031086032
:1055400000BF3148001D006820F0C00061690843B9
:105550002D49091D08600846006820F02000A16957
:1055600008432949091D08600846006820F010001A
:1055700008602548143000684FF6F8718843E169E7
:1055800040EAC1002049143108601F48001D00682E
:1055900040F010001C49091D08602EB9084600683B
:1055A00040F40020086012E0012E08D11648001DCA
:1055B000006840F480101449091D086007E0124893
:1055C000001D006840F400100F49091D08600E48D6
:1055D0002838006840F080600B4928390860FDF7E2
:1055E000E1F9054606E0FDF7DDF9401B022801D987
:1055F000032065E7044828380068C0F3C06000282D
:10560000F1D038465CE70000284402582DE9F0410B
:1056100004460E4600275548006800F003000328A2
:1056200002D10120BDE8F08150482838006820F000
:1056300080504E4928390860FDF7B4F9054606E068
:10564000FDF7B0F9401B022801D90320EAE74748DB
:1056500028380068C0F340700028F1D100BF4348EB
:10566000006820F07C70218840EA01503F490860C2
:10567000A088401EC0F30800A168491E4FF47E4276
:1056800002EA41210843A189491ED20102EA0141EF
:105690000843217C491E120202EA01610843334992
:1056A0001831086000BF3148001D006820F44060D8
:1056B000616908432D49091D08600846006820F407
:1056C0000070A16908432949091D0860084600685F
:1056D00020F48070086025481C3000684FF6F8718F
:1056E0008843E16940EAC10020491C3108601F4835
:1056F000001D006840F480701C49091D08602EB927
:105700000846006840F48000086012E0012E08D1CD
:105710001648001D006840F400001449091D086087
:1057200007E01248001D006840F080700F49091D15
:1057300008600E482838006840F080500B4928392E
:105740000860FDF72FF9054606E0FDF72BF9401B31
:10575000022801D9032065E7044828380068C0F30F
:1057600040700028F1D038465CE700002844025819
:10577000704710B5FDF71CF910BD000000B59DB0D5
:105780004C210AA8FAF79DFE202102A8FAF799FEFB
:105790000220FDF751FA00BF002001902848006860
:1057A00040F44040264908600846006800F4404044
:1057B00001902448006840F0010022490860084632
:1057C000006800F00100019000BF00BF00BF1C484E
:1057D000006800F40050B0F5005FF8D101200A9095
:1057E00000040B9002201390022114911591F021D6
:1057F0001691022117911891199108211A910021EF
:105800001B911C910AA8FEF72BFD08B1FBF787F945
:105810003F20029003200390002004900820059070
:105820004020069007900001089040200990042134
:1058300002A8FEF725FA08B1FBF771F91DB000BD0B
:10584000184802582C0400583648006840F470008C
:10585000344908603448006800F00F00072806D279
:105860003148006820F00F00C01D2F4908602F4804
:10587000006840F001002D49086000202B491031DC
:1058800008602A4800682A490840284908602648D4
:10589000006800F00F00072806D92348006820F0B0
:1058A0000F00C01D20490860002020491831086001
:1058B000091D0860091D08601E481C492831086040
:1058C0001D48091D08601D48091D08600020091DAC
:1058D00008601A48091D08600020091D0860174863
:1058E000091D08600020091D08601048006820F4A8
:1058F00080200E49086000200C4960310860104883
:1059000000686FF30F00B0F1005F02D201200D4973
:10591000086043F2D2000C4908604803014980390D
:105920000860704788ED00E00020005200440258F3
:105930007FEDF6EA000202020000FF018002010191
:105940000010005C088100510040005210B5024870
:10595000FFF722F910BD00001400002070B5456E5D
:105960002DB90125A0F86A50A0F868501CE010235A
:1059700010240568AD68C5F342610568AD686A0F1B
:105980000A4DAD5C15FB04F5094EB65C95FBF6F5CA
:10599000A0F86A50054D6D5C15FB03F5044E765C6E
:1059A00095FBF6F5A0F8685070BD0000126600087F
:1059B0001A66000890F8281001F0010139B1016859
:1059C000496821F40031C26A11430268516090F8BD
:1059D000281001F00201022907D10168496821F469
:1059E0008031026B11430268516090F8281001F079
:1059F0000401042907D10168496821F48021426B20
:105A000011430268516090F8281001F0080108293C
:105A100007D10168496821F40041826B1143026893
:105A2000516090F8281001F01001102907D1016889
:105A3000896821F48051C26B11430268916090F82B
:105A4000281001F02001202907D10168896821F47C
:105A50000051026C11430268916090F8281001F027
:105A60004001402913D10168496821F48011426C3A
:105A7000114302685160416CB1F5801F07D1016884
:105A8000496821F4C001826C11430268516090F8AA
:105A9000281001F08001802907D10168496821F4AC
:105AA0000021C26C114302685160704738B504464A
:105AB0000020C4F88C00FCF775FF054620680068DC
:105AC00000F0080008280CD16FF07E402B46002221
:105AD0004FF400110090204600F086FB08B103202F
